S00C000052746F732E7372656370
S11300000C942A000C9447000C9447000C9447006D
S11300100C9447000C9447000C9447000C94000780
S11300200C9447000C9447000C9447000C94470030
S11300300C9447000C9447000C9447000C94470020
S11300400C9447000C9447000C9447000C94470010
S11300500C94470011241FBECFE5D8E0DEBFCDBF0E
S113006010E0A0E6B0E0E4E7FBE202C005900D92E8
S1130070A038B107D9F714E0A0E8B0E001C01D92A0
S1130080AC33B107E1F70E946B0B0C94B8150C94D8
S1130090000080E487B987E886B9089597B187702E
S11300A0987F982B97B9369A3699FECF84B195B13B
S11300B008953E9A3F98379A329A319A3098339AF3
S11300C00895369A349A349BFECF0895E199FECF71
S11300D08EBB892F990F990B8FBB6DBBE29AE19A66
S11300E00895E199FECF8EBB892F990F990B8FBB91
S11300F0E09A8DB30895442341F46823792381E081
S11301006115710551F480E008959B01282339237A
S113011081E06217730709F080E00895CF93DF93BD
S11301208BE090E00E942402EC01009731F0FC0186
S113013011921192CF010E94F9048C2F9D2FDF910F
S1130140CF910895AF92BF92CF92DF92EF92FF9238
S11301500F931F93CF93DF935C016B01E42EF22E78
S11301600E94080FF501C081D181CE01B6014F2D47
S11301700E947B00882351F0EE2001F1C094D094BA
S1130180CC22DD22F501D182C08218C001151105EF
S1130190A9F0EE2019F460E070E002C060E071E0C4
S11301A0F11074606C297D29C5010296A8010E9492
S11301B095110E94CD0F882339F404C00E94CD0FFD
S11301C0CE0121C00E944A060E941B13EC0191FD3E
S11301D018C00FB6F8940F92F501C081D181CE01F9
S11301E0B6014F2D0E947B00882349F0EE2039F0A0
S11301F0C094D094CC22DD22F501D182C0820F902C
S11302000FBECE019070DF91CF911F910F91FF909F
S1130210EF90DF90CF90BF90AF900895FC010FB6A0
S1130220F8940F9280819181609570956823792369
S1130230718360830F900FBE0895FC0180819181CA
S11302400895AF92BF92CF92DF92EF92FF920F93F5
S11302501F93CF93DF938C01EB010F2EF5E0CF2E8C
S1130260DD24F02DC80ED91E0E94080FD801179660
S1130270ED91FC9118978D919C9111978C2B9D2B4E
S113028011969C938E93CE16DF06C1F1AA24BB244B
S1130290FF24F394EE2401C0FE01C281D381808146
S11302A09181BC0160709C01307092FD0BC0D8013B
S11302B08D919C911197822393234F2D009769F47C
S11302C04E2D0BC0D8018D919C91119782239323BD
S11302D04F2D2817390709F04E2D442359F070FF8C
S11302E002C0A22AB32AD8016D917C917260CF0119
S11302F00E94F911CC16DD0679F602C0AA24BB24AB
S1130300C50180959095F801A080B180A822B922FA
S1130310B182A0820E94CD0FD8018C9111969C913C
S11303201197DF91CF911F910F91FF90EF90DF9084
S1130330CF90BF90AF900895AF92BF92CF92DF92CB
S1130340EF92FF920F931F93CF93DF936C01EB0116
S11303507A0159010E94080FF60100811181C6013A
S1130360BE010E942101C02BD12BC7018C239D23E8
S11303708E159F0551F480959095F6012081318169
S1130380822393239183808312C0A114B10461F06A
S1130390B7017560C6010296A5010E9495110E94DD
S11303A0CD0F882349F406C0F601C081D1810E9493
S11303B0CD0F1CC00E944A060E941B1391FD14C05D
S11303C00FB6F8940F92F60180819181970128234A
S11303D039232E153F0531F42095309528233923F0
S11303E0318320830F900FBEEC01D0708C2F9D2F92
S11303F0DF91CF911F910F91FF90EF90DF90CF90FD
S1130400BF90AF900895CF93DF93EC010E94080F43
S11304108A81882349F08F81988560E072E00E9488
S1130420F9118A818823B9F7CE010E94C4020E947F
S1130430CD0FDF91CF910895BA010E942101089553
S1130440BA010E940E0108950F931F93CF93DF9377
S1130450EC010E94080F809180008823F9F48AE857
S113046090E0909382008093810010928400109217
S113047083008FE193E09093880080938700E7E8FE
S1130480F0E01292129290938D0080938C00F0937E
S11304908B00E0938A0081E080938000209709F428
S11304A062C09E012C5F3F4F239683E0CE31D80774
S11304B008F05CC0E0918100F0918200A1E8B0E016
S11304C002C0DF01FC01828193818217930720F42B
S11304D0808191810097A9F7C0E0E538FC0709F411
S11304E048C08D919C9111978C010C5F1F4F8081A6
S11304F0918111969C938E9382819381821B930B9D
S11305008930910518F1AF01420F531FDA01139698
S11305109C938E9312973383228312962D913C9150
S1130520139761E870E001C0BD01EB01A881B981B6
S113053012968D919C91139782179307A8F3EA0161
S1130540B983A883DB0111965C934E93809160007C
S11305509091610022813381821B930B90936100FF
S11305608093600008C000E010E005C000E010E0E7
S113057002C000E010E00E94CD0F802F912FDF9188
S1130580CF911F910F9108950F931F93CF93DF93F2
S1130590EC01009739F18C01045010400E94080FBF
S11305A0F80122813381A1E8B0E001C0DF01ED91BF
S11305B0FC9111978281938182179307B8F3249752
S11305C0F983E8830D931C938091600090916100FE
S11305D02A813B81820F931F909361008093600076
S11305E00E94CD0FDF91CF911F910F9108958091BB
S11305F0600090916100089508958FE084BB80EFBE
S113060085BB80B78B7F80BF0895AF92BF92CF9296
S1130610DF92EF92FF920F931F93CF93DF93CDB7A7
S1130620DEB760970FB6F894DEBF0FBECDBFDE0114
S11306301196E2E6F0E080E101900D928150E1F73D
S1130640EE24FF2410E000E0E1E0F0E0AA24BB2463
S11306506894A2F861E085B38F6085BB25B3CF01B0
S11306600E2C02C0880F991F0A94E2F7809582230A
S113067085BB9501AE2D722F745083B3AF01022E4A
S113068002C0440F551F0A94E2F790E08423952397
S1130690022E02C0959587950A94E2F7009721F4FB
S11306A0CA2ED72E162F062F2F5F3F4F2830310525
S11306B011F7113039F00894E11CF11C84E0E816BC
S11306C0F10449F6113059F4ED2DF0E0EE0FFF1F5F
S11306D0EE0FFF1FEC0DF11DEC0FFD1F0181802FAC
S11306E060960FB6F894DEBF0FBECDBFDF91CF91F9
S11306F01F910F91FF90EF90DF90CF90BF90AF903C
S11307000895DB9A8FE99FE00197F1F700C000009C
S1130710DB988FE99FE00197F1F700C0000008958E
S1130720CF93C82FD9988BB38F708BBB8BB39C2F6F
S1130730907F892B8BBB0E9481038BB38F708BBB03
S11307408BB3C295C07FC82BCBBB0E948103CF91D2
S113075008958AB3806F8ABB8AB38E608ABBDA98A5
S113076083E30E94900382E30E94900388E20E9444
S1130770900381E00E9490038EE00E9490038FE337
S11307809CE90197F1F700C000000895CF93C82FAA
S1130790D99A8BB38F708BBB8BB39C2F907F892B93
S11307A08BBB0E9481038BB38F708BBB8BB3C295C1
S11307B0C07FC82BCBBB0E948103CF91089581E0F9
S11307C00E9490030895882311F480E801C080EC0E
S11307D0860F0E94900308950F931F93CF938C016B
S11307E0FC018081882351F0C0E00E94C603CF5FE2
S11307F0F801EC0FF11D80818823B9F7CF911F9187
S11308000F91089583E50E94C60385E60E94C603FE
S113081084E70E94C60380E20E94C60380E50E942A
S1130820C60381E60E94C60383E70E94C60383E7EA
S11308300E94C60387E70E94C6038FE60E94C60390
S113084082E70E94C60384E60E94C60308958CE4EE
S11308500E94C6038FE60E94C60387E60E94C60371
S113086089E60E94C6038EE60E94C6038AE30E94BC
S1130870C60381E060E00E94E30381E30E94C603B3
S11308808EE20E94C60381E40E94C60384E60E94AD
S1130890C6038DE60E94C60389E60E94C6038EE65F
S11308A00E94C60380E20E94C60382E30E94C6033C
S11308B08EE20E94C60387E40E94C60385E70E9475
S11308C0C60385E60E94C60383E70E94C60384E745
S11308D00E94C603089587E50E94C60382E70E942A
S11308E0C6038FE60E94C6038EE60E94C60387E60F
S11308F00E94C60380E20E94C60380E50E94C603EC
S113090081E60E94C60383E70E94C60383E70E9430
S1130910C60387E70E94C6038FE60E94C60382E7E8
S11309200E94C60384E60E94C603089582E50E94DD
S1130930C6038FE60E94C6038FE60E94C6038DE6B7
S11309400E94C60383E70E94C6038AE30E94C6038B
S113095081E30E94C60380E20E94C60382E30E94F0
S1130960C60380E20E94C60383E30E94C60381E0BB
S113097060E00E94E30384E30E94C6038EE20E94C7
S1130980C60384E50E94C60386E50E94C60380E28E
S11309900E94C60385E30E94C6038EE20E94C6033A
S11309A081E40E94C60383E60E94C603089582E59B
S11309B00E94C6038FE60E94C6038FE60E94C60308
S11309C08DE60E94C60383E70E94C6038AE30E9461
S11309D0C60381E30E94C60380E20E94C60382E349
S11309E00E94C60380E20E94C60383E30E94C603FA
S11309F00895FC010396928381832FEF3FEF3483A4
S1130A002383968385839087878310820895FC01CE
S1130A10118610860895CF93DF93FB01DC011196B4
S1130A20CD91DC911297D383C2832C813D81358390
S1130A302483AC81BD8113967C936E9312977D833E
S1130A406C8391878087FC0120812F5F2083DF9155
S1130A50CF910895CF93DF93AC01EB0128813981C5
S1130A608FEF2F3F380721F4FA01A781B0850DC01D
S1130A70DA01139601C0DF011296ED91FC911397F0
S1130A808081918128173907B0F71296ED91FC9176
S1130A901397FB83EA83D583C483BD83AC83139606
S1130AA0DC93CE93129759874887FA0180818F5F30
S1130AB08083DF91CF910895CF93DF93FC01C085AC
S1130AC0D185A281B3818481958115969C938E935F
S1130AD01497A481B5818281938113969C938E93FC
S1130AE01297A981BA81AE17BF0731F414968D917C
S1130AF09C9115979A8389831186108688818150E9
S1130B008883DF91CF91089521E1FC0120833197FF
S1130B1032E23083FC013297A3E3A083FC013397D4
S1130B206083FC0134977083FC0135971082FC01CB
S1130B30369760E86083FC0137971082FC01389790
S1130B4062E06083FC01399763E06083FC013A97BB
S1130B5064E06083FC013B9765E06083FC013C97A3
S1130B6066E06083FC013D9767E06083FC013E978B
S1130B7068E06083FC013F9769E06083FC01709743
S1130B8060E16083FC0171972083FC01729722E18C
S1130B902083FC01739723E12083FC01749724E1F3
S1130BA02083FC01759725E12083FC01769726E1DB
S1130BB02083FC01779727E12083FC01789728E1C3
S1130BC02083FC01799729E12083FC017A9720E2B4
S1130BD02083FC017B9721E22083FC017C973083F6
S1130BE0FC017D9723E22083FC017E974083FC0176
S1130BF07F975083FC01B09726E22083FC01B197D4
S1130C0027E22083FC01B29728E22083FC01B397FA
S1130C1029E22083FC01B49720E32083FC01B597EB
S1130C2021E32083869708951BBC8CE78ABD8BE063
S1130C308EBD89B7806189BFA091AB03B091AC032D
S1130C40CD91CDBFDD91DEBFFF91EF91DF91CF91CB
S1130C50BF91AF919F918F917F916F915F914F91D0
S1130C603F912F911F910F91FF90EF90DF90CF90C4
S1130C70BF90AF909F908F907F906F905F904F90B8
S1130C803F902F901F900F900FBE0F90089581E01A
S1130C90089508950F920FB6F8940F921F9211249D
S1130CA02F923F924F925F926F927F928F929F9278
S1130CB0AF92BF92CF92DF92EF92FF920F931F9366
S1130CC02F933F934F935F936F937F938F939F9350
S1130CD0AF93BF93CF93DF93EF93FF93A091AB03B5
S1130CE0B091AC030DB60D920EB60D920E94D810C1
S1130CF0A091AB03B091AC03CD91CDBFDD91DEBF2C
S1130D00FF91EF91DF91CF91BF91AF919F918F911F
S1130D107F916F915F914F913F912F911F910F910F
S1130D20FF90EF90DF90CF90BF90AF909F908F9007
S1130D307F906F905F904F903F902F901F900F90F7
S1130D400FBE0F9008950F920FB6F8940F921F9252
S1130D5011242F923F924F925F926F927F928F92C3
S1130D609F92AF92BF92CF92DF92EF92FF920F9336
S1130D701F932F933F934F935F936F937F938F931F
S1130D809F93AF93BF93CF93DF93EF93FF93A09180
S1130D90AB03B091AC030DB60D920EB60D920E944A
S1130DA0280F882311F00E94D810A091AB03B091B2
S1130DB0AC03CD91CDBFDD91DEBFFF91EF91DF910B
S1130DC0CF91BF91AF919F918F917F916F915F91DF
S1130DD04F913F912F911F910F91FF90EF90DF90D2
S1130DE0CF90BF90AF909F908F907F906F905F90C7
S1130DF04F903F902F901F900F900FBE0F9008952B
S1130E000E94A30618950FB6F8940F92FC01928DD8
S1130E100F900FBE81E0911180E00895FC01448D94
S1130E204423C1F026813781240F311D3783268363
S1130E30A281B3812A173B0720F0208131813783B7
S1130E40268336812781862F972F632F722F50E0B8
S1130E500E94AF150895EF92FF920F931F93CF93C3
S1130E608C010FB6F8940F92FC01C68D1C16CCF4BD
S1130E708189882331F415C0F8018189882341F4DC
S1130E8010C00F2EF1E1EF2EFF24F02DE00EF11E25
S1130E90C7010E94AE11882311F00E947312C15041
S1130EA059F78FEFF801868F0F900FBE0FB6F894A5
S1130EB00F92F801C58D1C16C4F48085882331F483
S1130EC014C0F8018085882339F40FC0EE24FF2470
S1130ED06894E3F8E00EF11EC7010E94AE11882366
S1130EE011F00E947312C15061F78FEFF801858FE2
S1130EF00F900FBECF911F910F91FF90EF90089527
S1130F000F931F93CF93DF93EC01142F0A8D4C8D15
S1130F10442361F488819981009709F042C08A8151
S1130F209B810E94DA121B821A8242C01123B9F4F7
S1130F308C819D8150E00E94AF152C8D8C819D8108
S1130F40820F911D9D838C832A813B818217930795
S1130F5050F1888199819D838C8380E029C08E81A2
S1130F609F8150E00E94AF154C8D50E05095419503
S1130F705F4F8E819F81840F951F9F838E8328816D
S1130F8039818217930730F48A819B81840F951FDE
S1130F909F838E83123049F4002349F0015080E08E
S1130FA007C080E005C080E003C080E001C080E0AD
S1130FB00F5F0A8FDF91CF911F910F910895CF9307
S1130FC0DF93EC010FB6F8940F92488159812B8D71
S1130FD030E0EC8DF0E02E9FC0012F9F900D3E9FDE
S1130FE0900D1124840F951F9B838A831A8E5D8331
S1130FF04C83C9010197E89F9001E99F300DF89F48
S1131000300D1124240F351F3F832E838FEF8D8FD6
S11310108E8F662361F48885882389F0CE01089633
S11310200E94AE11882359F00E944A0608C0CE01DE
S113103008960E94F904CE0141960E94F9040F908B
S11310400FBE81E0DF91CF9108950F931F93CF934B
S1131050DF93082F162F662321F0689FC001112407
S113106002C080E090E04F960E942402EC010097B9
S113107071F0112319F49983888303C04F969983DF
S113108088830B8F1C8FCE0161E00E94DF078C2FB9
S11310909D2FDF91CF911F910F9108958F929F9271
S11310A0BF92CF92DF92EF92FF920F931F93CF9351
S11310B0DF9300D000D00F92CDB7DEB78C014B0187
S11310C05D834C83E22EFF24BB24B394CC24DD2423
S11310D06894C3F8C80ED91E0FB6F8940F92F8019D
S11310E0928D838D981718F0F2E0EF16D1F4C801B1
S11310F0B4014E2D0E948007F8019189992349F08B
S1131100C80141960E94AE11882339F00E944A0614
S113111004C0882311F00E944A060F900FBE81E09C
S113112052C08C819D81009721F40F900FBE80E006
S11311304AC0FF2029F4CE0101960E943312FB2CF1
S11311400F900FBE0E94080F0FB6F8940F92F8018B
S1131150858D8F3F09F4158EF801868D8F3F09F434
S1131160168E0F900FBECE010196BE016C5F7F4FAD
S11311700E943E12882309F50FB6F8940F92F801E5
S1131180928D0F900FBEF801838D981781F46C81B6
S11311907D81C6010E948311C8010E942B070E9411
S11311A0CD0F882309F098CF0E944A0695CFC80135
S11311B00E942B070E94CD0F8FCFC8010E942B07DE
S11311C00E94CD0F80E00F900F900F900F900F9022
S11311D0DF91CF911F910F91FF90EF90DF90CF900F
S11311E0BF909F908F900895CF93DF93482F81E015
S11311F060E00E942508EC01009761F01B821A82CE
S1131200198218821E8260E070E040E050E020E025
S11312100E944E088C2F9D2FDF91CF910895EF925D
S1131220FF920F931F93CF938C017A01FC01928D4F
S1131230838D981710F02230F1F4F801C68DC8019F
S1131240422F0E948007CF3F89F4F80181898823C7
S1131250A1F0C80141960E94AE11882381F0E114E7
S1131260F10479F081E0F70180830CC0CF5FF801CD
S1131270C68F81E007C080E005C081E003C081E043
S113128001C081E0CF911F910F91FF90EF900895DD
S1131290CF93DF93FC01EB01828D938D8917B8F412
S11312A0968D8F5F828F9F3F71F48189882389F0A7
S11312B0CF0141960E94AE11882369F0209769F00E
S11312C081E088830BC09F5F968F81E007C080E038
S11312D005C081E003C081E001C081E0DF91CF91CE
S11312E008958F929F92AF92BF92CF92DF92EF9226
S11312F0FF920F931F93CF93DF9300D000D00F92F0
S1131300CDB7DEB77C014B015D834C83C22E00E078
S1131310DD24D3940F2EF1E1AF2EBB24F02DA80EC3
S1131320B91E0FB6F8940F92F701128D112399F19B
S1131330A680B780C701B4010E940E07CC20C9F46F
S11313401150F701128F80819181009729F40E9436
S11313503313F70193838283F70180858823B9F0DF
S1131360C70108960E94AE11882389F00E944A069C
S11313700EC0F701B782A6828189882341F0C70194
S113138041960E94AE11882311F00E944A060F90E4
S11313900FBE81E061C08C819D81009721F40F9084
S11313A00FBE80E059C0002329F4CE0101960E94AB
S11313B033120D2D0F900FBE0E94080F0FB6F89434
S11313C00F92F701858D8F3F09F4158EF701868DF5
S11313D08F3F09F4168E0F900FBECE010196BE0109
S11313E06C5F7F4F0E943E12882351F5C7010E9413
S11313F003078823F9F0F70180819181009751F464
S11314000FB6F8940F92F701828193810E947C12A7
S11314100F900FBE6C817D81C5010E948311C701AD
S11314200E942B070E94CD0F882309F07ACF0E94D7
S11314304A0677CFC7010E942B070E94CD0F71CFB8
S1131440C7010E942B070E94CD0FC7010E9403070A
S1131450882309F466CF80E00F900F900F900F90CF
S11314600F90DF91CF911F910F91FF90EF90DF903C
S1131470CF90BF90AF909F908F900895EF92FF927E
S11314800F931F93CF93DF938C017A01FC01C28DDC
S1131490CC23E9F0D58D0E940E07C150F801C28F0C
S11314A0DF3F81F480858823A1F0C80108960E945B
S11314B0AE11882381F0E114F10479F081E0F701A1
S11314C080830CC0DF5FF801D58F81E007C080E026
S11314D005C081E003C081E001C081E0DF91CF91CC
S11314E01F910F91FF90EF9008950F931F93CF9347
S11314F0DF93EC018A8D882349F00E811F81CE0190
S11315000E940E071F830E8381E001C080E0DF91FB
S1131510CF911F910F9108950FB6F8940F92FC018B
S1131520828D0F900FBE0895FC010FB6F8940F92B0
S1131530928D0F900FBE838D891B0895FC01828DBF
S11315400895FC01928D81E0911180E00895FC01E1
S1131550228D81E0938D291380E00895DC01809130
S11315601A0490911B04009751F0EEE1F4E021E09D
S113157030E0A90180819181009779F402C040E0B4
S113158050E0FA01EE0FFF1FEE0FFF1FE65EFB4F68
S113159071836083B383A28308952F5F3F4F349692
S11315A02830310531F70895AC0180911C049091E5
S11315B01D048417950759F0E0E2F4E021E030E0DF
S11315C0B901808191818417950769F402C060E0B4
S11315D070E0FB01EE0FFF1FEE0FFF1FE65EFB4FF7
S11315E08081918108952F5F3F4F349628303105D3
S11315F039F780E090E00895AC0180911C0490914B
S11316001D048417950759F0E0E2F4E021E030E08E
S1131610B901808191818417950779F402C060E053
S113162070E0FB01EE0FFF1FEE0FFF1FE65EFB4FA6
S1131630118210821382128208952F5F3F4F3496D5
S11316402830310529F70895CF93DF93EC010E94E8
S1131650FC0ACE010E94C402DF91CF910895C0E23A
S113166010E400E10E94A00B813321F495B390585B
S113167095BB0CC0823321F495B3912795BB0CC064
S1131680833321F485B38C2785BBECCF843321F4D9
S113169085B3802785BBE6CF853321F70E94A00B55
S11316A0D82FAB9916C080E090E00E944E00282FFE
S11316B0392F332314F42F5F3F4FC9019595879534
S11316C02D2F30E02F5F3F4F281739075CF6AB9A78
S11316D0C9CFAB98C7CF78940E9449000E949D0B54
S11316E0A79AA69AA59AA49AA39ACFE2DBE00F2E12
S11316F0F2E7CF2EF0E0DF2EF02DE090A903F0907A
S1131700AA03CE01B60144E650E020E030E001E057
S11317100E943F0C0E94D80EF0CF689A699868988E
S11317206C9A6E9ABC9ABD9ABF9AC49A0895C4984A
S11317308FB9779BFECFC49A08956E9AC698089580
S1131740779BFECF8FB10895FC018285938524E0B9
S11317508F30920761F42489358983E02D3F38075F
S113176041F081E02115310529F080E0089580E001
S1131770089580E00895E091BB03F091BC0380815B
S1131780882339F48FEF9FEF9093AF038093AE03D8
S11317900895E091BB03F091BC030580F681E02D30
S11317A00680F781E02D828193819093AF0380932B
S11317B0AE030895EF92FF921F93CF93DF93EC0152
S11317C0162FE090B503F090B6038091AB0390918F
S11317D0AC0302960E945C058FEFCF3FD80769F4F3
S11317E0112359F06091AB037091AC036E5F7F4F8E
S11317F08FE094E00E940B052FC0CE0DDF1DE09119
S1131800AB03F091AC03D383C283CE15DF0568F438
S11318108091B9039091BA036091AB037091AC03CA
S11318206E5F7F4F0E942A0517C08091BB03909181
S1131830BC036091AB037091AC036E5F7F4F0E9459
S11318402A058091AE039091AF03C817D90720F4FD
S1131850D093AF03C093AE03DF91CF911F91FF905C
S1131860EF900895CF93DF93EC018F89988D0E94B8
S1131870C402CE010E94C402DF91CF9108952F9239
S11318803F924F925F926F927F928F929F92AF920C
S1131890BF92DF92EF92FF920F931F93CF93DF9348
S11318A03C015B01EA012901D02E4701CA010E94D3
S11318B024027C01009709F4EDC08AE290E00E94C2
S11318C024028C01009781F0FC01F08EE78A2197B5
S11318D017012C0E3D1EF5018081F801818FF50161
S11318E08081882331F413C0C7010E94C4028FEFA2
S11318F0D6C0E8016A96D501119681E0FD019D915B
S113190099939081992319F08F5F8A30B9F7F80180
S113191012A2CD2DC53008F0C4E0F801C68BC3A3D4
S113192014A2EE24FF246894E1F8E00EF11EC7012E
S11319300E940705C8010C960E940705F80111874B
S1131940008785E090E08C1B910995878487138B31
S1131950028B15A216A217A210A611A6C101B301EB
S1131960A2010E948405F80191838083811491046B
S113197019F0F401118300830FB6F8940F9280914B
S1131980B7038F5F8093B7038091AB039091AC034F
S1131990009709F03FC01093AC030093AB03809110
S11319A0B703813009F047C0C0E0D0E0CE01880F12
S11319B0991F880F991F880F991F8C0F9D1F8254A0
S11319C09C4F0E94F9042196C530D10579F7CBEEDE
S11319D0D3E0CE010E94F9040F2EF4EFAF2EF3E012
S11319E0BF2EF02DC5010E94F9048DEF93E00E94F3
S11319F0F90486E094E00E94F9048FE094E00E94E8
S1131A00F904D093BC03C093BB03B092BA03A09271
S1131A10B90311C08091B303882369F4E091AB0347
S1131A20F091AC039689F8018689891720F0109308
S1131A30AC030093AB038091BD038F5F8093BD0320
S1131A40F80186899091B403981710F48093B40335
S1131A5090E09C01220F331F220F331F220F331FEC
S1131A60820F931F82549C4FB7010E940B050F9065
S1131A700FBE8091B303882379F0E091AB03F0911A
S1131A80AC039689F8018689981740F40E944A06A7
S1131A9081E005C08FEF03C081E001C081E0DF91E8
S1131AA0CF911F910F91FF90EF90DF90BF90AF9077
S1131AB09F908F907F906F905F904F903F902F906A
S1131AC008950F931F93CF93DF930FB6F8940F925B
S1131AD0009729F4C091AB03D091AC0301C0EC0191
S1131AE08E010E5F1F4FC8010E945C058C899D8981
S1131AF0009721F0CE010C960E945C058091BD03F5
S1131B008F5F8093BD038091AB039091AC03C817A2
S1131B10D90759F486E094E0B8010E940B0580913E
S1131B20B8038F5F8093B8030AC08091B7038150D4
S1131B308093B703CE010E94320C0E94BB0B0F901E
S1131B400FBE8091B303882349F08091AB03909139
S1131B50AC03C817D90711F40E944A06DF91CF914C
S1131B601F910F9108950FB6F8940F92009729F4DE
S1131B70E091AB03F091AC0301C0FC010F900FBEE8
S1131B8086890895009729F4E091AB03F091AC03A2
S1131B9001C0FC0186890895EF92FF921F93CF93B1
S1131BA0DF93653008F064E00FB6F8940F92009765
S1131BB029F4C091AB03D091AC0301C0EC012BA17B
S1131BC0261709F461C0261788F48091AB0390911D
S1131BD0AC03C817D907A1F0E091AB03F091AC03B3
S1131BE011E08689681768F410E00BC08091AB039C
S1131BF09091AC0311E0C817D90719F010E001C0A7
S1131C0010E08E89281709F46E8B6BA32C853D8513
S1131C10332334F025E030E0261B31093D872C873F
S1131C2090E09C01220F331F220F331F220F331F1A
S1131C30820F931F82549C4F2A853B8528173907AE
S1131C40F9F4EE24FF246894E1F8EC0EFD1EC701BC
S1131C500E945C058E899091B403981710F48093C8
S1131C60B40390E09C01220F331F220F331F220F75
S1131C70331F820F931F82549C4FB7010E940B05A0
S1131C80112311F00E944A060F900FBEDF91CF91ED
S1131C901F91FF90EF9008950F931F93CF93DF93BD
S1131CA0EC010097B9F18091AB039091AC03C81794
S1131CB0D90781F10FB6F8940F92CE010E94A40BBC
S1131CC0882331F18E010E5F1F4FC8010E945C050D
S1131CD08E899091B403981710F48093B40390E024
S1131CE09C01220F331F220F331F220F331F820F39
S1131CF0931F82549C4FB8010E940B05E091AB03E3
S1131D00F091AC039E898689981710F00E944A06C8
S1131D100F900FBEDF91CF911F910F910895EF9215
S1131D20FF921F93CF93DF93EC010E94A40B8823AF
S1131D30B9F18091AD03882351F5E091AB03F091A3
S1131D40AC0311E09E898689981708F410E0EE240C
S1131D50FF246894E1F8EC0EFD1EC7010E945C05A7
S1131D608E899091B403981710F48093B40390E093
S1131D709C01220F331F220F331F220F331F820FA8
S1131D80931F82549C4FB7010E940B050AC0BE01E9
S1131D90645F7F4F8DEF93E00E940B0510E001C05C
S1131DA010E0812FDF91CF911F91FF90EF90089564
S1131DB0EF92FF920F938DE490E16BE770E048ECB3
S1131DC050E020E030E000E00F2EF8E1EF2EF4E0E8
S1131DD0FF2EF02D0E943F0C813081F4F8948FEF98
S1131DE09FEF9093AF038093AE0381E08093B3039E
S1131DF01092B6031092B5030E9414060F91FF903F
S1131E00EF900895F8941092B3030E944906089540
S1131E108091AD038F5F8093AD0308950FB6F8945E
S1131E200F928091B5039091B6030F900FBE089561
S1131E308091B5039091B60308958091B7030895F6
S1131E40009721F48091AB039091AC0349960895D7
S1131E50CF92DF92EF92FF920F931F93CF93DF9372
S1131E608091AD03882309F082C0C090B503D0905F
S1131E70B6030894C11CD11CD092B603C092B5031A
S1131E80C114D104B9F48091BB039091BC03209197
S1131E90B9033091BA033093BC032093BB039093EE
S1131EA0BA038093B9038091B0038F5F8093B0032A
S1131EB00E94BB0B8091AE039091AF03C816D90664
S1131EC020F4FF245AC0FE2C03C0FF24EE24E39424
S1131ED0E091BB03F091BC038081882339F48FEF38
S1131EE09FEF9093AF038093AE0347C0E091BB0391
S1131EF0F091BC030580F681E02DC681D7818A81EB
S1131F009B81C816D90628F49093AF038093AE033F
S1131F1034C08E010E5F1F4FC8010E945C058C897E
S1131F209D89009721F0CE010C960E945C058E8954
S1131F309091B403981710F48093B40390E09C013B
S1131F40220F331F220F331F220F331F820F931FC1
S1131F5082549C4FB8010E940B05E091AB03F091B1
S1131F60AC039E898689981708F0ADCFB1CF8091D4
S1131F70B2038F5F8093B203FF248091B10388235F
S1131F8011F0FF24F3948F2DDF91CF911F910F91C6
S1131F90FF90EF90DF90CF900895DF92EF92FF9241
S1131FA00F931F93CF93DF930FB6F8940F92809102
S1131FB0AD0381508093AD038091AD03882309F074
S1131FC05FC08091B703882391F55DC0E09102045E
S1131FD0F0910304C681D781CE010C960E945C0562
S1131FE08E010E5F1F4FC8010E945C058E8990917F
S1131FF0B403981710F48093B40390E09C01220F6B
S1132000331F220F331F220F331F820F931F82545B
S11320109C4FB8010E940B05E091AB03F091AC0317
S11320209E898689981768F0D092B1030AC0C0E0EF
S1132030D0E00F2EFDEFEF2EF3E0FF2EF02DDD2488
S1132040D394F7018081882309F6209711F00E9428
S1132050BB0BC091B203CC2359F001E00E94280FBE
S1132060882311F00093B103C150C1F71092B20359
S11320708091B103882331F00E944A0681E003C0B5
S113208080E001C080E00F900FBEDF91CF911F91DF
S11320900F91FF90EF90DF90089506E014E00F2E6B
S11320A0FEEBEF2EF3E0FF2EF02D24C00E94080F6C
S11320B0F801C0810E94CD0FCC23E1F00FB6F89453
S11320C00F92E0910B04F0910C04C681D781CE01EC
S11320D002960E945C058091B70381508093B703F8
S11320E08091B80381508093B8030F900FBECE0146
S11320F00E94320C8091B8038823C1F6F7018081D5
S11321008230C0F30E944A06F5CFCF93DF93EC01EF
S1132110009751F00E94080FCE0160E00E94DA0B94
S11321200E94CD0F882311F40E944A06DF91CF91BB
S113213008950F931F93CF93DF938C01EB010E94BB
S1132140080F8091B5039091B603F8012081318185
S1132150C20FD31F8217930748F4C217D307F8F4AA
S1132160D183C0838C179D0778F407C0C217D307A7
S113217090F08C179D0778F012C09E01281B390B34
S1132180C90160E00E94DA0B0E94CD0F882359F444
S11321900E944A0608C0F801D183C083EECFF8013B
S11321A0D183C083F1CFDF91CF911F910F91089517
S11321B08091AD03882321F081E08093B1030895D9
S11321C01092B1032091B403822F90E0FC01EE0F32
S11321D0FF1FEE0FFF1FEE0FFF1FE80FF91FE25462
S11321E0FC4F3081332389F42150822F90E0FC018D
S11321F0EE0FFF1FEE0FFF1FEE0FFF1FE80FF91F7B
S1132200E254FC4F3081332379F3DC01AA0FBB1F66
S1132210AA0FBB1FAA0FBB1F8A0F9B1FDC01A2546E
S1132220BC4F1196ED91FC9112970280F381E02D41
S11322301296FC93EE931197CD010396E817F907D4
S113224031F48281938112969C938E931197119607
S1132250ED91FC911297868197819093AC038093C2
S1132260AB032093B40308950F931F93CF93DF938D
S11322700FB6F8940F92009729F40091AB031091D4
S1132280AC0301C08C01E8012296CE010E945C05DA
S1132290F80184899589009721F0C8010C960E9461
S11322A05C058FE094E0BE010E940B050F900FBE09
S11322B08091B303882339F00FB6F8940F920E94EB
S11322C0BB0B0F900FBE8091AB039091AC0308172A
S11322D01907A1F48091B303882319F00E944A06D8
S11322E00DC08091B70390910F04981729F41092B0
S11322F0AC031092AB0302C00E94D810DF91CF91BF
S11323001F910F910895CF93DF93EB016091AB037D
S11323107091AC03645F7F4F0E942A05CE0161E097
S11323200E94DA0BDF91CF910895CF93DF93EA01F6
S1132330E091AB03F091AC0370687587648760919A
S1132340AB037091AC03645F7F4F0E940B05CE0119
S113235061E00E94DA0BDF91CF9108950F931F93F0
S1132360CF93DF93DC011596ED91FC9116970681CE
S11323701781E8012C96CE010E945C058091AD0383
S11323808823E9F4E8012296CE010E945C05F80155
S113239086899091B403981710F48093B40390E065
S11323A09C01220F331F220F331F220F331F820F72
S11323B0931F82549C4FBE010E940B0505C08DEFF4
S11323C093E0BE010E940B05E091AB03F091AC03D6
S11323D0D80156969C9156978689891720F481E0F6
S11323E08093B10301C080E0DF91CF911F910F91E1
S11323F008950F931F93CF93DF937068FC0171834B
S11324006083C681D7810E945C058E010E5F1F4FD9
S1132410C8010E945C058E899091B403981710F44A
S11324208093B40390E09C01220F331F220F331FCB
S1132430220F331F820F931F82549C4FB8010E94B6
S11324400B05E091AB03F091AC039E898689891753
S113245020F481E08093B10301C080E0DF91CF914B
S11324601F910F910895FC018091B00380838091A6
S1132470B5039091B603928381830895FC01DB0137
S11324800FB6F8940F926091B5037091B6034D9115
S11324905C9111978FEF4F3F5807E9F08091B0039B
S11324A09081981729F08181928168177907A8F49F
S11324B0818192819B01281B390B2417350778F4FD
S11324C0861B970B840F951F8D939C93CF010E94BD
S11324D0331280E005C080E003C081E001C081E0E8
S11324E00F900FBE089581E08093B1030895809109
S11324F0AB039091AC0308950F931F93CF93DF9395
S1132500EC01009709F451C08E89E091AB03F0917E
S1132510AC039689891708F048C02C853D85332380
S11325205CF0E091AB03F091AC03968925E030E0D8
S1132530291B31093D872C8790E09C01220F331F12
S1132540220F331F220F331F820F931F82549C4F7D
S11325502A853B852817390711F58E010E5F1F4F19
S1132560C8010E945C05E091AB03F091AC0386893D
S11325708E8B9091B403981710F48093B40390E079
S11325809C01220F331F220F331F220F331F820F90
S1132590931F82549C4FB8010E940B0506C0E09122
S11325A0AB03F091AC0386898E8BDF91CF911F91A1
S11325B00F9108950F931F93CF93DF93EC0100972E
S11325C081F18CA181508CA32E899BA1291759F1EB
S11325D0882359F58E010E5F1F4FC8010E945C05C8
S11325E04BA14E8B242F30E085E090E0821B930BAF
S11325F09D878C878091B403841710F44093B403AF
S1132600C901880F991F880F991F880F991F280FD8
S1132610391FC90182549C4FB8010E940B0581E007
S113262005C080E003C080E001C080E0DF91CF916D
S11326301F910F910895E091AB03F091AC03848551
S11326409585E091AB03F091AC03A091AB03B091FD
S1132650AC0356964C91569725E030E0241B310983
S11326603587248708958091AB039091AC0300973C
S113267039F0E091AB03F091AC0384A18F5F84A3A4
S11326808091AB039091AC0308950F931F93CF9364
S1132690C82F0FB6F8940F92E091AB03F091AC03FE
S11326A085A196A1A7A1B0A50097A105B10579F4CC
S11326B0E091AB03F091AC0381E081A76115710552
S11326C031F0CB0161E00E94DA0B0E944A060F90C0
S11326D00FBE0FB6F8940F92E091AB03F091AC03E8
S11326E005A116A127A130A5011511052105310564
S11326F0C1F0CC2349F0E091AB03F091AC0315A2F7
S113270016A217A210A60DC0E091AB03F091AC0382
S1132710D901C8010197A109B10985A396A3A7A36B
S1132720B0A7E091AB03F091AC0311A60F900FBEDC
S1132730602F712F822F932FCF911F910F910895A6
S11327408F929F92AF92BF92EF92FF920F931F933B
S1132750DC01CB0149015A010FB6F8940F92E091C4
S1132760AB03F091AC0321A5223019F1E091AB0346
S1132770F091AC0345A156A167A170A580959095F1
S1132780A095B09584239523A623B72385A396A368
S1132790A7A3B0A7E091AB03F091AC0381E081A7BC
S11327A0E114F10431F0C70161E00E94DA0B0E94E8
S11327B04A060F900FBE0FB6F8940F92011511053B
S11327C069F0E091AB03F091AC0385A196A1A7A1B8
S11327D0B0A5F80180839183A283B383E091AB0316
S11327E0F091AC0381A58130B1F0E091AB03F0919D
S11327F0AC0385A196A1A7A1B0A580949094A094C0
S1132800B09488229922AA22BB2285A296A2A7A2CA
S1132810B0A681E001C080E0E091AB03F091AC038D
S113282011A60F900FBE1F910F91FF90EF90BF90D4
S1132830AF909F908F9008950F931F93CF93DF9342
S1132840EC010FB6F8940F920115110549F08DA112
S11328509EA1AFA1B8A5F80180839183A283B3831D
S113286039A582E089A72230B9F0233018F4213049
S113287051F505C02330E1F0243029F51EC08DA1A7
S11328809EA1AFA1B8A5482B592B6A2B7B2B4DA336
S11328905EA36FA378A717C08DA19EA1AFA1B8A511
S11328A00196A11DB11D8DA39EA3AFA3B8A70BC014
S11328B04DA35EA36FA378A706C0323071F14DA378
S11328C05EA36FA378A7313051F58E010E5F1F4FC1
S11328D0C8010E945C058E899091B403981710F486
S11328E08093B40390E09C01220F331F220F331F07
S11328F0220F331F820F931F82549C4FB8010E94F2
S11329000B05E091AB03F091AC039E89868989178E
S113291040F40E944A0681E005C080E003C081E0E3
S113292001C081E00F900FBEDF91CF911F910F91F5
S11329300895EF92FF920F931F93CF93DF93EC01CF
S11329400115110549F08DA19EA1AFA1B8A5F8010B
S113295080839183A283B38339A582E089A722303F
S1132960B9F0233018F4213059F505C02330E1F0D3
S1132970243031F51EC08DA19EA1AFA1B8A5842B32
S1132980952BA62BB72B8DA39EA3AFA3B8A718C0D6
S11329908DA19EA1AFA1B8A50196A11DB11D8DA3C6
S11329A09EA3AFA3B8A70CC04DA35EA36FA378A743
S11329B007C0323009F441C04DA35EA36FA378A7CA
S11329C03130E9F58091AD038823E9F48E010E5F7F
S11329D01F4FC8010E945C058E899091B40398171B
S11329E010F48093B40390E09C01220F331F220F54
S11329F0331F220F331F820F931F82549C4FB80141
S1132A000E940B0507C0BE01645F7F4F8DEF93E00A
S1132A100E940B05E091AB03F091AC039E8986897B
S1132A20891778F4E114F10421F081E0F70180833F
S1132A3009C081E08093B10305C080E003C081E058
S1132A4001C081E0DF91CF911F910F91FF90EF9032
S1132A500895EF92FF920F931F93CF93DF93EC01AE
S1132A608B0129A582E089A78DA19EA1AFA1B8A55C
S1132A700196A11DB11D8DA39EA3AFA3B8A72130BC
S1132A80E9F58091AD03882301F5EE24FF246894D1
S1132A90E1F8EC0EFD1EC7010E945C058E89909141
S1132AA0B403981710F48093B40390E09C01220FB0
S1132AB0331F220F331F220F331F820F931F8254A1
S1132AC09C4FB7010E940B0507C0BE01645F7F4F96
S1132AD08DEF93E00E940B05E091AB03F091AC0302
S1132AE09E898689891750F40115110521F081E02A
S1132AF0F801808303C081E08093B103DF91CF911B
S1132B001F910F91FF90EF900895009729F4E091A1
S1132B10AB03F091AC0301C0FC010FB6F8940F9223
S1132B2081A5823019F411A681E001C080E00F90E4
S1132B300FBE089583B78F7B83BF83B7886083BF3D
S1132B4083B7816083BF83B78D7F83BF83B784607E
S1132B5083BF8EE48CBF89B7826089BF0895FB016F
S1132B60DC0102C001900D9241505040D8F7089505
S1072B70F894FFCF03
S1132B741F033734316F383532303936333D2F2A19
S1132B842D2B416264756C6C61680049444C4500AA
S9030000FC
