:100000000C942A000C9447000C9447000C94470071
:100010000C9447000C9447000C9447000C94EE0697
:100020000C9447000C9447000C941F0E0C9447004E
:100030000C9447000C9447000C9447000C94470024
:100040000C9447000C9447000C9447000C94470014
:100050000C94470011241FBECFE5D8E0DEBFCDBF12
:1000600010E0A0E6B0E0E8E5F3E302C005900D92F1
:10007000A23AB107D9F714E0A2EAB0E001C01D929C
:10008000A537B107E1F70E94DF0D0C94AA190C9473
:1000900000003E9A3F98379A329A319A3098789475
:1000A000339A0895369A0895E199FECF8EBB892F31
:1000B000990F990B8FBB6DBBE29AE19A0895E19974
:1000C000FECF8EBB892F990F990B8FBBE09A8DB312
:1000D0000895442341F46823792381E06115710573
:1000E00051F480E008959B012823392381E06217B1
:1000F000730709F080E00895CF93DF938BE090E0E1
:100100000E941202EC01009731F0FC011192119251
:10011000CF010E94E7048C2F9D2FDF91CF9108958E
:10012000AF92BF92CF92DF92EF92FF920F931F9305
:10013000CF93DF935C016B01E42EF22E0E941C1220
:10014000F501C081D181CE01B6014F2D0E94690019
:10015000882351F0EE2001F1C094D094CC22DD220E
:10016000F501D182C08218C001151105A9F0EE2059
:1001700019F460E070E002C060E071E0F1107460BA
:100180006C297D29C5010296A8010E94A9140E942C
:10019000E112882339F404C00E94E112CE0121C08B
:1001A0000E9438060E942F16EC0191FD18C00FB670
:1001B000F8940F92F501C081D181CE01B6014F2D87
:1001C0000E946900882349F0EE2039F0C094D09451
:1001D000CC22DD22F501D182C0820F900FBECE016C
:1001E0009070DF91CF911F910F91FF90EF90DF9072
:1001F000CF90BF90AF900895FC010FB6F8940F9286
:1002000080819181609570956823792371836083E3
:100210000F900FBE0895FC01808191810895AF92E7
:10022000BF92CF92DF92EF92FF920F931F93CF93E3
:10023000DF938C01EB010F2EF5E0CF2EDD24F02DA6
:10024000C80ED91E0E941C12D8011796ED91FC9180
:1002500018978D919C9111978C2B9D2B11969C93A7
:100260008E93CE16DF06C1F1AA24BB24FF24F3949B
:10027000EE2401C0FE01C281D38180819181BC0145
:1002800060709C01307092FD0BC0D8018D919C91E3
:100290001197822393234F2D009769F44E2D0BC0A5
:1002A000D8018D919C911197822393234F2D28176C
:1002B000390709F04E2D442359F070FF02C0A22ADD
:1002C000B32AD8016D917C917260CF010E940D1507
:1002D000CC16DD0679F602C0AA24BB24C5018095A0
:1002E0009095F801A080B180A822B922B182A082A5
:1002F0000E94E112D8018C9111969C911197DF9187
:10030000CF911F910F91FF90EF90DF90CF90BF9012
:10031000AF900895AF92BF92CF92DF92EF92FF928B
:100320000F931F93CF93DF936C01EB017A01590177
:100330000E941C12F60100811181C601BE010E94BB
:100340000F01C02BD12BC7018C239D238E159F0538
:1003500051F480959095F601208131818223932379
:100360009183808312C0A114B10461F0B70175605C
:10037000C6010296A5010E94A9140E94E1128823D9
:1003800049F406C0F601C081D1810E94E1121CC06F
:100390000E9438060E942F1691FD14C00FB6F894E3
:1003A0000F92F601808191819701282339232E1520
:1003B0003F0531F42095309528233923318320835C
:1003C0000F900FBEEC01D0708C2F9D2FDF91CF913D
:1003D0001F910F91FF90EF90DF90CF90BF90AF9063
:1003E0000895CF93DF93EC010E941C128A81882329
:1003F00049F08F81988560E072E00E940D158A8136
:100400008823B9F7CE010E94B2020E94E112DF9167
:10041000CF910895BA010E940F010895BA010E9478
:10042000FC0008950F931F93CF93DF93EC010E947C
:100430001C128091A2008823F9F48CEA90E090933A
:10044000A4008093A3001092A6001092A5008FE153
:1004500093E09093AA008093A900E9EAF0E0129259
:1004600012929093AF008093AE00F093AD00E093B2
:10047000AC0081E08093A200209709F462C09E0145
:100480002C5F3F4F239683E0CE31D80708F05CC045
:10049000E091A300F091A400A3EAB0E002C0DF0164
:1004A000FC01828193818217930720F480819181DE
:1004B0000097A9F7C0E0E73AFC0709F448C08D911E
:1004C0009C9111978C010C5F1F4F80819181119637
:1004D0009C938E9382819381821B930B893091052B
:1004E00018F1AF01420F531FDA0113969C938E93BC
:1004F00012973383228312962D913C91139763EACE
:1005000070E001C0BD01EB01A881B98112968D9107
:100510009C91139782179307A8F3EA01B983A883E4
:10052000DB0111965C934E93809160009091610085
:1005300022813381821B930B909361008093600032
:1005400008C000E010E005C000E010E002C000E0DC
:1005500010E00E94E112802F912FDF91CF911F9127
:100560000F9108950F931F93CF93DF93EC010097A2
:1005700039F18C01045010400E941C12F8012281B4
:100580003381A3EAB0E001C0DF01ED91FC91119746
:100590008281938182179307B8F32497F983E883C4
:1005A0000D931C9380916000909161002A813B81A2
:1005B000820F931F90936100809360000E94E1126C
:1005C000DF91CF911F910F910895809160009091DC
:1005D0006100089508958FE084BB80EF85BB80B7EC
:1005E0008B7F80BF0895AF92BF92CF92DF92EF9240
:1005F000FF920F931F93CF93DF93CDB7DEB7609732
:100600000FB6F894DEBF0FBECDBFDE011196E2E655
:10061000F0E080E101900D928150E1F7EE24FF249B
:1006200010E000E0E1E0F0E0AA24BB246894A2F826
:1006300061E085B38F6085BB25B3CF010E2C02C06E
:10064000880F991F0A94E2F78095822385BB950154
:10065000AE2D722F745083B3AF01022E02C0440F2F
:10066000551F0A94E2F790E084239523022E02C0DE
:10067000959587950A94E2F7009721F4CA2ED72E14
:10068000162F062F2F5F3F4F2830310511F71130FD
:1006900039F00894E11CF11C84E0E816F10449F6F5
:1006A000113059F4ED2DF0E0EE0FFF1FEE0FFF1F9C
:1006B000EC0DF11DEC0FFD1F0181802F60960FB630
:1006C000F894DEBF0FBECDBFDF91CF911F910F9188
:1006D000FF90EF90DF90CF90BF90AF900895DB9A9E
:1006E0008FE99FE00197F1F700C00000DB988FE9E8
:1006F0009FE00197F1F700C000000895CF93C82F45
:10070000D9988BB38F708BBB8BB39C2F907F892B29
:100710008BBB0E946F038BB38F708BBB8BB3C29567
:10072000C07FC82BCBBB0E946F03CF9108958AB3C3
:10073000806F8ABB8AB38E608ABBDA9883E30E949B
:100740007E0382E30E947E0388E20E947E0381E0B2
:100750000E947E038EE00E947E038FE39CE9019756
:10076000F1F700C000000895CF93C82FD99A8BB33A
:100770008F708BBB8BB39C2F907F892B8BBB0E9480
:100780006F038BB38F708BBB8BB3C295C07FC82BAD
:10079000CBBB0E946F03CF91089581E00E947E033E
:1007A0000895882311F480E801C080EC860F0E9430
:1007B0007E0308950F931F93CF938C01FC018081DA
:1007C000882351F0C0E00E94B403CF5FF801EC0F22
:1007D000F11D80818823B9F7CF911F910F91089562
:1007E00083E50E94B40385E60E94B40384E70E9477
:1007F000B40380E20E94B40380E50E94B40381E662
:100800000E94B40383E70E94B40383E70E94B40309
:1008100087E70E94B4038FE60E94B40382E70E9438
:10082000B40384E60E94B40308958CE40E94B403E8
:100830008FE60E94B40387E60E94B40389E60E9413
:10084000B4038EE60E94B4038AE30E94B40381E0FD
:1008500060E00E94D10381E30E94B4038EE20E9413
:10086000B40381E40E94B40384E60E94B4038DE6DD
:100870000E94B40389E60E94B4038EE60E94B4038A
:1008800080E20E94B40382E30E94B4038EE20E94DD
:10089000B40387E40E94B40385E70E94B40385E6AD
:1008A0000E94B40383E70E94B40384E70E94B40368
:1008B000089587E50E94B40382E70E94B4038FE69F
:1008C0000E94B4038EE60E94B40387E60E94B4033C
:1008D00080E20E94B40380E50E94B40381E60E9496
:1008E000B40383E70E94B40383E70E94B40387E75D
:1008F0000E94B4038FE60E94B40382E70E94B4030F
:1009000084E60E94B403089582E50E94B4038FE652
:100910000E94B4038FE60E94B4038DE60E94B403E4
:1009200083E70E94B4038AE30E94B40381E30E9438
:10093000B40380E20E94B40382E30E94B40380E225
:100940000E94B40383E30E94B40381E060E00E944C
:10095000D10384E30E94B4038EE20E94B40384E5D1
:100960000E94B40386E50E94B40380E20E94B403AF
:1009700085E30E94B4038EE20E94B40381E40E94E6
:10098000B40383E60E94B403089582E50E94B40391
:100990008FE60E94B4038FE60E94B4038DE60E94A6
:1009A000B40383E70E94B4038AE30E94B40381E3A3
:1009B0000E94B40380E20E94B40382E30E94B40365
:1009C00080E20E94B40383E30E94B4030895FC0113
:1009D0000396928381832FEF3FEF348323839683A3
:1009E00085839087878310820895FC011186108685
:1009F0000895CF93DF93FB01DC011196CD91DC913B
:100A00001297D383C2832C813D8135832483AC81AB
:100A1000BD8113967C936E9312977D836C8391872F
:100A20008087FC0120812F5F2083DF91CF91089583
:100A3000CF93DF93AC01EB01288139818FEF2F3FFA
:100A4000380721F4FA01A781B0850DC0DA011396A9
:100A500001C0DF011296ED91FC9113978081918185
:100A600028173907B0F71296ED91FC911397FB8385
:100A7000EA83D583C483BD83AC831396DC93CE9382
:100A8000129759874887FA0180818F5F8083DF91B1
:100A9000CF910895CF93DF93FC01C085D185A281CA
:100AA000B3818481958115969C938E931497A4812C
:100AB000B5818281938113969C938E931297A9811D
:100AC000BA81AE17BF0731F414968D919C9115979A
:100AD0009A83898311861086888181508883DF916B
:100AE000CF91089521E1FC012083319732E23083D8
:100AF000FC013297A3E3A083FC0133976083FC01E0
:100B000034977083FC0135971082FC01369760E8BA
:100B10006083FC0137971082FC01389762E06083A4
:100B2000FC01399763E06083FC013A9764E06083DD
:100B3000FC013B9765E06083FC013C9766E06083C5
:100B4000FC013D9767E06083FC013E9768E06083AD
:100B5000FC013F9769E06083FC01709760E160836E
:100B6000FC0171972083FC01729722E12083FC0134
:100B7000739723E12083FC01749724E12083FC0117
:100B8000759725E12083FC01769726E12083FC01FF
:100B9000779727E12083FC01789728E12083FC01E7
:100BA000799729E12083FC017A9720E22083FC01D8
:100BB0007B9721E22083FC017C973083FC017D97A9
:100BC00023E22083FC017E974083FC017F975083C2
:100BD000FC01B09726E22083FC01B19727E2208335
:100BE000FC01B29728E22083FC01B39729E220831D
:100BF000FC01B49720E32083FC01B59721E3208317
:100C0000869708951BBC8CE78ABD8BE08EBD89B7A3
:100C1000806189BFA091E103B091E203CD91CDBF86
:100C2000DD91DEBFFF91EF91DF91CF91BF91AF9149
:100C30009F918F917F916F915F914F913F912F91F4
:100C40001F910F91FF90EF90DF90CF90BF90AF90EA
:100C50009F908F907F906F905F904F903F902F90DC
:100C60001F900F900FBE0F90089581E00895089592
:100C70000F920FB6F8940F921F9211242F923F9269
:100C80004F925F926F927F928F929F92AF92BF929C
:100C9000CF92DF92EF92FF920F931F932F933F9388
:100CA0004F935F936F937F938F939F93AF93BF9374
:100CB000CF93DF93EF93FF93A091E103B091E20311
:100CC0000DB60D920EB60D920E94EC13A091E103A9
:100CD000B091E203CD91CDBFDD91DEBFFF91EF91E9
:100CE000DF91CF91BF91AF919F918F917F916F9144
:100CF0005F914F913F912F911F910F91FF90EF9036
:100D0000DF90CF90BF90AF909F908F907F906F902B
:100D10005F904F903F902F901F900F900FBE0F90BD
:100D200008950F920FB6F8940F921F9211242F92EC
:100D30003F924F925F926F927F928F929F92AF926B
:100D4000BF92CF92DF92EF92FF920F931F932F9358
:100D50003F934F935F936F937F938F939F93AF9343
:100D6000BF93CF93DF93EF93FF93A091E103B091F3
:100D7000E2030DB60D920EB60D920E943C1288232E
:100D800011F00E94EC13A091E103B091E203CD9128
:100D9000CDBFDD91DEBFFF91EF91DF91CF91BF918C
:100DA000AF919F918F917F916F915F914F913F9103
:100DB0002F911F910F91FF90EF90DF90CF90BF90F8
:100DC000AF909F908F907F906F905F904F903F90EB
:100DD0002F901F900F900FBE0F9008950E949106C4
:100DE00018950FB6F8940F92FC01928D0F900FBEDC
:100DF00081E0911180E00895FC01448D4423C1F00D
:100E000026813781240F311D37832683A281B38148
:100E10002A173B0720F020813181378326833681D2
:100E20002781862F972F632F722F50E00E94A119E0
:100E30000895EF92FF920F931F93CF938C010FB6FB
:100E4000F8940F92FC01C68D1C16CCF4818988237E
:100E500031F415C0F8018189882341F410C00F2EA8
:100E6000F1E1EF2EFF24F02DE00EF11EC7010E94EC
:100E7000C214882311F00E948715C15059F78FEFD3
:100E8000F801868F0F900FBE0FB6F8940F92F801FD
:100E9000C58D1C16C4F48085882331F414C0F80174
:100EA0008085882339F40FC0EE24FF246894E3F88A
:100EB000E00EF11EC7010E94C214882311F00E94A7
:100EC0008715C15061F78FEFF801858F0F900FBE26
:100ED000CF911F910F91FF90EF9008950F931F9363
:100EE000CF93DF93EC01142F0A8D4C8D442361F4D2
:100EF00088819981009709F042C08A819B810E9474
:100F0000EE151B821A8242C01123B9F48C819D8197
:100F100050E00E94A1192C8D8C819D81820F911D22
:100F20009D838C832A813B818217930750F18881AE
:100F300099819D838C8380E029C08E819F8150E0C0
:100F40000E94A1194C8D50E0509541955F4F8E81C4
:100F50009F81840F951F9F838E83288139818217FB
:100F6000930730F48A819B81840F951F9F838E8322
:100F7000123049F4002349F0015080E007C080E0BE
:100F800005C080E003C080E001C080E00F5F0A8FF1
:100F9000DF91CF911F910F910895CF93DF93EC01D3
:100FA0000FB6F8940F92488159812B8D30E0EC8D6B
:100FB000F0E02E9FC0012F9F900D3E9F900D1124B9
:100FC000840F951F9B838A831A8E5D834C83C9018E
:100FD0000197E89F9001E99F300DF89F300D112493
:100FE000240F351F3F832E838FEF8D8F8E8F6623C7
:100FF00061F48885882389F0CE0108960E94C21486
:10100000882359F00E94380608C0CE0108960E9435
:10101000E704CE0141960E94E7040F900FBE81E0E5
:10102000DF91CF9108950F931F93CF93DF93082FF4
:10103000162F662321F0689FC001112402C080E0B2
:1010400090E04F960E941202EC01009771F011237C
:1010500019F49983888303C04F96998388830B8FF3
:101060001C8FCE0161E00E94CD078C2F9D2FDF9158
:10107000CF911F910F9108958F929F92BF92CF921F
:10108000DF92EF92FF920F931F93CF93DF9300D0E5
:1010900000D00F92CDB7DEB78C014B015D834C833E
:1010A000E22EFF24BB24B394CC24DD246894C3F83F
:1010B000C80ED91E0FB6F8940F92F801928D838D49
:1010C000981718F0F2E0EF16D1F4C801B4014E2DD4
:1010D0000E946E07F8019189992349F0C801419651
:1010E0000E94C214882339F00E94380604C0882365
:1010F00011F00E9438060F900FBE81E052C08C8123
:101100009D81009721F40F900FBE80E04AC0FF2020
:1011100029F4CE0101960E944715FB2C0F900FBEBB
:101120000E941C120FB6F8940F92F801858D8F3F24
:1011300009F4158EF801868D8F3F09F4168E0F90F5
:101140000FBECE010196BE016C5F7F4F0E9452150B
:10115000882309F50FB6F8940F92F801928D0F903D
:101160000FBEF801838D981781F46C817D81C601D3
:101170000E949714C8010E9419070E94E112882357
:1011800009F098CF0E94380695CFC8010E94190730
:101190000E94E1128FCFC8010E9419070E94E1123C
:1011A00080E00F900F900F900F900F90DF91CF91F4
:1011B0001F910F91FF90EF90DF90CF90BF909F9085
:1011C0008F900895CF93DF93482F81E060E00E94D5
:1011D0001308EC01009761F01B821A8219821882B1
:1011E0001E8260E070E040E050E020E00E943C0899
:1011F0008C2F9D2FDF91CF910895EF92FF920F9347
:101200001F93CF938C017A01FC01928D838D9817E7
:1012100010F02230F1F4F801C68DC801422F0E946F
:101220006E07CF3F89F4F80181898823A1F0C801B6
:1012300041960E94C214882381F0E114F10479F0F0
:1012400081E0F70180830CC0CF5FF801C68F81E099
:1012500007C080E005C081E003C081E001C081E0FB
:10126000CF911F910F91FF90EF900895CF93DF934F
:10127000FC01EB01828D938D8917B8F4968D8F5FF9
:10128000828F9F3F71F48189882389F0CF01419635
:101290000E94C214882369F0209769F081E0888356
:1012A0000BC09F5F968F81E007C080E005C081E0A2
:1012B00003C081E001C081E0DF91CF9108958F925A
:1012C0009F92AF92BF92CF92DF92EF92FF920F93D5
:1012D0001F93CF93DF9300D000D00F92CDB7DEB72E
:1012E0007C014B015D834C83C22E00E0DD24D3944E
:1012F0000F2EF1E1AF2EBB24F02DA80EB91E0FB6B4
:10130000F8940F92F701128D112399F1A680B780FE
:10131000C701B4010E94FC06CC20C9F41150F701AA
:10132000128F80819181009729F40E944716F7015E
:1013300093838283F70180858823B9F0C7010896DB
:101340000E94C214882389F00E9438060EC0F7015B
:10135000B782A6828189882341F0C70141960E9405
:10136000C214882311F00E9438060F900FBE81E04E
:1013700061C08C819D81009721F40F900FBE80E0A9
:1013800059C0002329F4CE0101960E9447150D2D66
:101390000F900FBE0E941C120FB6F8940F92F70127
:1013A000858D8F3F09F4158EF701868D8F3F09F4E7
:1013B000168E0F900FBECE010196BE016C5F7F4F5F
:1013C0000E945215882351F5C7010E94F106882317
:1013D000F9F0F70180819181009751F40FB6F894EC
:1013E0000F92F701828193810E9490150F900FBE9A
:1013F0006C817D81C5010E949714C7010E94190765
:101400000E94E112882309F07ACF0E94380677CF34
:10141000C7010E9419070E94E11271CFC7010E9403
:1014200019070E94E112C7010E94F106882309F4FE
:1014300066CF80E00F900F900F900F900F90DF918C
:10144000CF911F910F91FF90EF90DF90CF90BF90C1
:10145000AF909F908F900895EF92FF920F931F93FC
:10146000CF93DF938C017A01FC01C28DCC23E9F08C
:10147000D58D0E94FC06C150F801C28FDF3F81F478
:1014800080858823A1F0C80108960E94C214882391
:1014900081F0E114F10479F081E0F70180830CC060
:1014A000DF5FF801D58F81E007C080E005C081E0F3
:1014B00003C081E001C081E0DF91CF911F910F91C6
:1014C000FF90EF9008950F931F93CF93DF93EC015C
:1014D0008A8D882349F00E811F81CE010E94FC066F
:1014E0001F830E8381E001C080E0DF91CF911F91C7
:1014F0000F9108950FB6F8940F92FC01828D0F9012
:101500000FBE0895FC010FB6F8940F92928D0F90C4
:101510000FBE838D891B0895FC01828D0895FC0107
:10152000928D81E0911180E00895FC01228D81E08F
:10153000938D291380E00895DC01809151049091EE
:101540005204009751F0E5E5F4E021E030E0A90114
:1015500080819181009779F402C040E050E0FA0167
:10156000EE0FFF1FEE0FFF1FEF5AFB4F71836083DB
:10157000B383A28308952F5F3F4F349628303105FF
:1015800031F70895AC01809153049091540484176D
:10159000950759F0E7E5F4E021E030E0B9018081FA
:1015A00091818417950769F402C060E070E0FB0147
:1015B000EE0FFF1FEE0FFF1FEF5AFB4F808191814F
:1015C00008952F5F3F4F34962830310539F780E07A
:1015D00090E00895AC0180915304909154048417D5
:1015E000950759F0E7E5F4E021E030E0B9018081AA
:1015F00091818417950779F402C060E070E0FB01E7
:10160000EE0FFF1FEE0FFF1FEF5AFB4F11821082EC
:101610001382128208952F5F3F4F34962830310590
:1016200029F70895CF93DF93EC010E94EA0ACE01D7
:101630000E94B202DF91CF9108959798969895985D
:101640009498959A82E08093D0030E94CD030E94E3
:10165000C504C8E00F2EFFE6CF2EFBE0DF2EF02DF5
:101660000F2EF2E7AF2EF0E0BF2EF02D0E94F30216
:10167000882381F02FEF32E547E021503040404091
:10168000E1F700C00000982F9153933018F490E0D8
:101690000E94AB0E8091CB038130A1F4E090D9037E
:1016A000F090DA03C601B50142E350E020E030E0FB
:1016B00001E00E94530F8091D1039091D2030E94C8
:1016C0007510D4CF82B38C2782BB8FEF91EEA4E04C
:1016D00081509040A040E1F700C00000C7CF85E0F6
:1016E00090E060E370E00E9454000E94CD031092ED
:1016F000D00380E090E0DC018093CC039093CD0395
:10170000A093CE03B093CF031092CB0397989698F3
:1017100095989498979A0E9415040F2EFDE1CF2E6C
:10172000FBE0DF2EF02DC2E7D0E00F2EF0E2AF2E6F
:10173000FCE0BF2EF02D0E94F3028823E1F32FEF8F
:1017400032E547E0215030404040E1F700C0000062
:101750008133A1F4E090D703F090D803C501BE0116
:1017600044E650E020E030E001E00E94530F809119
:10177000D9039091DA030E947510DDCF8233D9F638
:10178000E090D103F090D203C601BE0144E650E0E0
:1017900020E030E001E00E94530F8091D903909146
:1017A000DA030E947510C7CF9798969895989498E9
:1017B000949A0E94CD038CE790E00E94DA0385E0C2
:1017C00090E061E370E00E94540083E08093D003D6
:1017D0000F2EFFE6CF2EFBE0DF2EF02D0F2EF2E7CF
:1017E000AF2EF0E0BF2EF02DC8E08091CB0381300A
:1017F000D1F4E090D903F090DA03C601B50142E3D9
:1018000050E020E030E001E00E94530F8091D303CC
:101810009091D4030E94751085E090E060E370E041
:101820000E945400E2CF82B38C2782BB8FEF99E6EF
:10183000A8E181509040A040E1F700C00000D5CF62
:10184000CF93DF9300D00F92CDB7DEB70E94CD03C8
:1018500080E090E00E945F008983803319F00E944D
:10186000F00304C084E890E00E94DA0381E090E095
:1018700060E070E00E94D103979ACC24DD240F2E03
:10188000F1E7AF2EF4E0BF2EF02D0F2EF2E78F2EF2
:10189000F0E09F2EF02D0F2EF6E36F2EFDE07F2E51
:1018A000F02D25010894411C511C222433246894F6
:1018B00021F82A0C3B1CC50103969B838A830E9456
:1018C000F302182F8823D9F38FEF92E5A7E0815018
:1018D0009040A040E1F700C00000812F0E94B403B7
:1018E0008FEF91EEA4E081509040A040E1F700C05E
:1018F0000000ED2CFF2481E090E0B7010E94D103AD
:101900008AE20E94B403F701EF58FB4F108393E083
:10191000D91609F0A9C0A981A033B9F180E090E0FF
:1019200060E370E00E945400F501608181E090E086
:1019300070E00E945400D2016C9182E090E070E06F
:101940000E945400F101608183E090E070E00E9409
:101950005400AA81BB816C9184E090E070E00E9409
:101960005400E090D503F090D603C301B40144E6DF
:1019700050E020E030E001E00E94530F8091D70357
:101980009091D8030E9475106FC081E090E00E9492
:101990005F00082F82E090E00E945F00182F83E034
:1019A00090E00E945F00E82E84E090E00E945F00DB
:1019B000F5019081901711F5A2E7B4E09C91911781
:1019C000E9F4E3E7F4E090819E15C1F412969C914E
:1019D0009817A1F4E090D503F090D603C301B401A9
:1019E00044E650E020E030E001E00E94530F809197
:1019F000D7039091D8030E94751036C00E94CD0382
:101A00000E9459048FEF99E6A8E181509040A040D0
:101A1000E1F700C000000E94CD0384E890E00E943E
:101A2000DA0381E090E060E070E00E94D103C394AB
:101A300093E0C916B9F4E090D903F090DA0384ED8D
:101A40009BE0B40144E650E020E030E001E00E9479
:101A5000530F8091D7039091D8030E947510DD2415
:101A6000DA9402C0DD24DA94D39429CFCF93DF93A4
:101A700000D0CDB7DEB781E08093D00397989698D9
:101A800095989498969A0E94CD030E948404AA2463
:101A9000BB240F2EFEE82F2EF0E03F2EF02D8824E1
:101AA0009924689481F8DD246894D3F80F2EFFE61A
:101AB0006F2EFBE07F2EF02D0F2EF2E74F2EF0E081
:101AC0005F2EF02D0E94F302182F882309F451C0D5
:101AD0008FEF92E5A7E081509040A040E1F700C071
:101AE00000001A141B047CF5812F0E94B403C4016A
:101AF0008A199B09A1E0B0E0AC0FBD1F8A0F9B1FA4
:101B0000FC011083F1E0AF16B104C9F40E94CD03CB
:101B100080E090E060E070E00E94D1030E948404C5
:101B20008981805389839A8190539A83880F282FC3
:101B3000220F220F820F890F90E00E94AB0E0894B3
:101B4000A108B10816C0812F8153853090F4812FF0
:101B500090E00E94AB0E153361F40E94CD03C101E9
:101B60000E94DA0381E090E060E070E00E94D1031F
:101B700054018091CB038130A9F4949AE090D90369
:101B8000F090DA03C301B20142E350E020E030E01C
:101B900001E00E94530F8091D5039091D6030E94DB
:101BA000751090CF82B38D2582BB8FEF91EEA4E0AC
:101BB00081509040A040E1F700C0000083CF7894AE
:101BC0000E9497030E94EB020E94AE180E94A10E91
:101BD0008F9A8E9A8D9A8C9A0F2EF4EDAF2EFBE091
:101BE000BF2EF02DC3E9D0E00F2EFFE6CF2EFBE095
:101BF000DF2EF02D85E090E00E945F00813391059B
:101C000071F0E090D903F090DA03C601BE0142E31F
:101C100050E020E030E001E00E94530F0DC0E09062
:101C2000D303F090D403C501BE0142E350E020E0AD
:101C300030E001E00E94530F0E94EC11DBCF1F92B5
:101C40000F920FB60F9211242F933F934F935F93F0
:101C50006F937F938F939F93AF93BF93EF93FF9374
:101C60008091D003882309F45BC0813099F460919E
:101C7000CC037091CD038091CE039091CF0320E0EF
:101C800030E64AE657E40E942819882319F481E0D7
:101C90008093CB038091D003823099F46091CC0380
:101CA0007091CD038091CE039091CF0320E030E678
:101CB0004AEE56E40E942819882319F481E08093A3
:101CC000CB038091D003833099F46091CC03709161
:101CD000CD038091CE039091CF0320E038EC4FEA02
:101CE00057E40E942819882319F481E08093CB03DC
:101CF0006091CC037091CD038091CE039091CF037E
:101D000020E030E040E85FE30E94C418DC01CB0132
:101D10008093CC039093CD03A093CE03B093CF03D5
:101D2000FF91EF91BF91AF919F918F917F916F91B3
:101D30005F914F913F912F910F900FBE0F901F9089
:101D40001895689A699868986C9A6E9ABC9ABD9A28
:101D5000BF9AC49A0895C4988FB9779BFECFC49A4E
:101D600008956E9AC6980895779BFECF8FB1089517
:101D7000FC018285938524E08534920761F42489EF
:101D8000358984E02333380741F081E0211531059E
:101D900029F080E0089580E0089580E00895E091C2
:101DA000F103F091F2038081882339F48FEF9FEFE4
:101DB0009093E5038093E4030895E091F103F0919B
:101DC000F2030580F681E02D0680F781E02D828107
:101DD00093819093E5038093E4030895EF92FF923B
:101DE0001F93CF93DF93EC01162FE090EB03F0905D
:101DF000EC038091E1039091E20302960E944A0570
:101E00008FEFCF3FD80769F4112359F06091E103B8
:101E10007091E2036E5F7F4F85E494E00E94F904C5
:101E20002FC0CE0DDF1DE091E103F091E203D383DB
:101E3000C283CE15DF0568F48091EF039091F00323
:101E40006091E1037091E2036E5F7F4F0E9418057D
:101E500017C08091F1039091F2036091E1037091BA
:101E6000E2036E5F7F4F0E9418058091E40390911A
:101E7000E503C817D90720F4D093E503C093E40322
:101E8000DF91CF911F91FF90EF900895CF93DF9353
:101E9000EC018F89988D0E94B202CE010E94B2029D
:101EA000DF91CF9108952F923F924F925F926F9260
:101EB0007F928F929F92AF92BF92DF92EF92FF92AA
:101EC0000F931F93CF93DF933C015B01EA0129013C
:101ED000D02E4701CA010E9412027C01009709F42A
:101EE000EDC08AE290E00E9412028C01009781F01E
:101EF000FC01F08EE78A219717012C0E3D1EF5019B
:101F00008081F801818FF5018081882331F413C02D
:101F1000C7010E94B2028FEFD6C0E8016A96D501D0
:101F2000119681E0FD019D9199939081992319F07B
:101F30008F5F8A30B9F7F80112A2CD2DC53008F0B5
:101F4000C4E0F801C68BC3A314A2EE24FF24689456
:101F5000E1F8E00EF11EC7010E94F504C8010C96DD
:101F60000E94F504F8011187008785E090E08C1B42
:101F7000910995878487138B028B15A216A217A24D
:101F800010A611A6C101B301A2010E947205F801B9
:101F9000918380838114910419F0F40111830083EB
:101FA0000FB6F8940F928091ED038F5F8093ED034D
:101FB0008091E1039091E203009709F03FC01093F4
:101FC000E2030093E1038091ED03813009F047C003
:101FD000C0E0D0E0CE01880F991F880F991F880FAD
:101FE000991F8C0F9D1F8C509C4F0E94E7042196D7
:101FF000C530D10579F7C1E2D4E0CE010E94E704F3
:102000000F2EFAE2AF2EF4E0BF2EF02DC5010E9494
:10201000E70483E394E00E94E7048CE394E00E94E9
:10202000E70485E494E00E94E704D093F203C093B0
:10203000F103B092F003A092EF0311C08091E90385
:10204000882369F4E091E103F091E2039689F801B5
:102050008689891720F01093E2030093E1038091B1
:10206000F3038F5F8093F303F80186899091EA036D
:10207000981710F48093EA0390E09C01220F331F1D
:10208000220F331F220F331F820F931F8C509C4F40
:10209000B7010E94F9040F900FBE8091E9038823D5
:1020A00079F0E091E103F091E2039689F8018689E5
:1020B000981740F40E94380681E005C08FEF03C0F6
:1020C00081E001C081E0DF91CF911F910F91FF90DE
:1020D000EF90DF90BF90AF909F908F907F906F9028
:1020E0005F904F903F902F9008950F931F93CF9341
:1020F000DF930FB6F8940F92009729F4C091E10393
:10210000D091E20301C0EC018E010E5F1F4FC801A8
:102110000E944A058C899D89009721F0CE010C967A
:102120000E944A058091F3038F5F8093F3038091AF
:10213000E1039091E203C817D90759F48CE394E0C6
:10214000B8010E94F9048091EE038F5F8093EE0343
:102150000AC08091ED0381508093ED03CE010E946F
:10216000460F0E94CF0E0F900FBE8091E903882387
:1021700049F08091E1039091E203C817D90711F467
:102180000E943806DF91CF911F910F9108950FB6ED
:10219000F8940F92009729F4E091E103F091E203A3
:1021A00001C0FC010F900FBE86890895009729F4A5
:1021B000E091E103F091E20301C0FC0186890895FA
:1021C000EF92FF921F93CF93DF93653008F064E0A6
:1021D0000FB6F8940F92009729F4C091E103D091C3
:1021E000E20301C0EC012BA1261709F461C02617F8
:1021F00088F48091E1039091E203C817D907A1F018
:10220000E091E103F091E20311E08689681768F438
:1022100010E00BC08091E1039091E20311E0C81738
:10222000D90719F010E001C010E08E89281709F4D1
:102230006E8B6BA32C853D85332334F025E030E095
:10224000261B31093D872C8790E09C01220F331F0C
:10225000220F331F220F331F820F931F8C509C4F6E
:102260002A853B8528173907F9F4EE24FF24689462
:10227000E1F8EC0EFD1EC7010E944A058E8990917F
:10228000EA03981710F48093EA0390E09C01220F70
:10229000331F220F331F220F331F820F931F8C50C7
:1022A0009C4FB7010E94F904112311F00E943806D7
:1022B0000F900FBEDF91CF911F91FF90EF90089587
:1022C0000F931F93CF93DF93EC010097B9F18091A7
:1022D000E1039091E203C817D90781F10FB6F89492
:1022E0000F92CE010E94B80E882331F18E010E5F4D
:1022F0001F4FC8010E944A058E899091EA039817E2
:1023000010F48093EA0390E09C01220F331F220F08
:10231000331F220F331F820F931F8C509C4FB80125
:102320000E94F904E091E103F091E2039E8986891D
:10233000981710F00E9438060F900FBEDF91CF91D2
:102340001F910F910895EF92FF921F93CF93DF9308
:10235000EC010E94B80E8823B9F18091E303882331
:1023600051F5E091E103F091E20311E09E89868945
:10237000981708F410E0EE24FF246894E1F8EC0EBE
:10238000FD1EC7010E944A058E899091EA039817A5
:1023900010F48093EA0390E09C01220F331F220F78
:1023A000331F220F331F820F931F8C509C4FB70196
:1023B0000E94F9040AC0BE01645F7F4F83E394E08A
:1023C0000E94F90410E001C010E0812FDF91CF914D
:1023D0001F91FF90EF900895EF92FF920F9381E687
:1023E00093E16CE970E048EC50E020E030E000E080
:1023F0000F2EFEE4EF2EF4E0FF2EF02D0E94530F7F
:10240000813081F4F8948FEF9FEF9093E5038093F0
:10241000E40381E08093E9031092EC031092EB0354
:102420000E9402060F91FF90EF900895F894109289
:10243000E9030E94370608958091E3038F5F80933C
:10244000E30308950FB6F8940F928091EB039091F7
:10245000EC030F900FBE08958091EB039091EC0375
:1024600008958091ED030895009721F48091E10390
:102470009091E20349960895CF92DF92EF92FF92F6
:102480000F931F93CF93DF938091E303882309F089
:1024900082C0C090EB03D090EC030894C11CD11C07
:1024A000D092EC03C092EB03C114D104B9F4809133
:1024B000F1039091F2032091EF033091F0033093F8
:1024C000F2032093F1039093F0038093EF03809144
:1024D000E6038F5F8093E6030E94CF0E8091E403B2
:1024E0009091E503C816D90620F4FF245AC0FE2CAB
:1024F00003C0FF24EE24E394E091F103F091F20392
:102500008081882339F48FEF9FEF9093E5038093C8
:10251000E40347C0E091F103F091F2030580F681F6
:10252000E02DC681D7818A819B81C816D90628F4FF
:102530009093E5038093E40334C08E010E5F1F4F38
:10254000C8010E944A058C899D89009721F0CE011F
:102550000C960E944A058E899091EA03981710F410
:102560008093EA0390E09C01220F331F220F331F58
:10257000220F331F820F931F8C509C4FB8010E9473
:10258000F904E091E103F091E2039E8986899817AE
:1025900008F0ADCFB1CF8091E8038F5F8093E8035F
:1025A000FF248091E703882311F0FF24F3948F2DFB
:1025B000DF91CF911F910F91FF90EF90DF90CF901F
:1025C0000895DF92EF92FF920F931F93CF93DF93C3
:1025D0000FB6F8940F928091E30381508093E30348
:1025E0008091E303882309F05FC08091ED03882385
:1025F00091F55DC0E0913804F0913904C681D7812E
:10260000CE010C960E944A058E010E5F1F4FC80135
:102610000E944A058E899091EA03981710F48093DE
:10262000EA0390E09C01220F331F220F331F220F79
:10263000331F820F931F8C509C4FB8010E94F904E6
:10264000E091E103F091E2039E898689981768F092
:10265000D092E7030AC0C0E0D0E00F2EF3E3EF2EE4
:10266000F4E0FF2EF02DDD24D394F7018081882340
:1026700009F6209711F00E94CF0EC091E803CC23F9
:1026800059F001E00E943C12882311F00093E70307
:10269000C150C1F71092E8038091E703882331F01D
:1026A0000E94380681E003C080E001C080E00F9006
:1026B0000FBEDF91CF911F910F91FF90EF90DF90B0
:1026C00008950CE314E00F2EF4EFEF2EF3E0FF2E4D
:1026D000F02D24C00E941C12F801C0810E94E1125A
:1026E000CC23E1F00FB6F8940F92E0914104F09101
:1026F0004204C681D781CE0102960E944A0580918C
:10270000ED0381508093ED038091EE03815080931F
:10271000EE030F900FBECE010E94460F8091EE0394
:102720008823C1F6F70180818230C0F30E94380609
:10273000F5CFCF93DF93EC01009751F00E941C126C
:10274000CE0160E00E94EE0E0E94E112882311F497
:102750000E943806DF91CF9108950F931F93CF9376
:10276000DF938C01EB010E941C128091EB0390918E
:10277000EC03F80120813181C20FD31F8217930728
:1027800048F4C217D307F8F4D183C0838C179D0790
:1027900078F407C0C217D30790F08C179D0778F024
:1027A00012C09E01281B390BC90160E00E94EE0E89
:1027B0000E94E112882359F40E94380608C0F801EB
:1027C000D183C083EECFF801D183C083F1CFDF91F5
:1027D000CF911F910F9108958091E303882321F0F9
:1027E00081E08093E70308951092E7032091EA03C4
:1027F000822F90E0FC01EE0FFF1FEE0FFF1FEE0F88
:10280000FF1FE80FF91FEC50FC4F3081332389F490
:102810002150822F90E0FC01EE0FFF1FEE0FFF1FF3
:10282000EE0FFF1FE80FF91FEC50FC4F30813323F0
:1028300079F3DC01AA0FBB1FAA0FBB1FAA0FBB1F96
:102840008A0F9B1FDC01AC50BC4F1196ED91FC919F
:1028500012970280F381E02D1296FC93EE9311976C
:10286000CD010396E817F90731F48281938112961E
:102870009C938E9311971196ED91FC9112978681FE
:1028800097819093E2038093E1032093EA030895F4
:102890000F931F93CF93DF930FB6F8940F92009787
:1028A00029F40091E1031091E20301C08C01E801D9
:1028B0002296CE010E944A05F801848995890097E5
:1028C00021F0C8010C960E944A0585E494E0BE01FF
:1028D0000E94F9040F900FBE8091E903882339F01C
:1028E0000FB6F8940F920E94CF0E0F900FBE8091FA
:1028F000E1039091E20308171907A1F48091E9031D
:10290000882319F00E9438060DC08091ED03909144
:102910004504981729F41092E2031092E10302C0D3
:102920000E94EC13DF91CF911F910F910895CF93E7
:10293000DF93EB016091E1037091E203645F7F4FED
:102940000E941805CE0161E00E94EE0EDF91CF914A
:102950000895CF93DF93EA01E091E103F091E20360
:102960007068758764876091E1037091E203645F2A
:102970007F4F0E94F904CE0161E00E94EE0EDF91CC
:10298000CF9108950F931F93CF93DF93DC0115969A
:10299000ED91FC91169706811781E8012C96CE01E6
:1029A0000E944A058091E3038823E9F4E801229616
:1029B000CE010E944A05F80186899091EA03981792
:1029C00010F48093EA0390E09C01220F331F220F42
:1029D000331F220F331F820F931F8C509C4FBE0159
:1029E0000E94F90405C083E394E0BE010E94F9044B
:1029F000E091E103F091E203D80156969C9156973D
:102A00008689891720F481E08093E70301C080E084
:102A1000DF91CF911F910F9108950F931F93CF9343
:102A2000DF937068FC0171836083C681D7810E9447
:102A30004A058E010E5F1F4FC8010E944A058E890C
:102A40009091EA03981710F48093EA0390E09C01B8
:102A5000220F331F220F331F220F331F820F931FAA
:102A60008C509C4FB8010E94F904E091E103F09171
:102A7000E2039E898689891720F481E08093E70329
:102A800001C080E0DF91CF911F910F910895FC016B
:102A90008091E60380838091EB039091EC03928315
:102AA00081830895FC01DB010FB6F8940F926091C9
:102AB000EB037091EC034D915C9111978FEF4F3FB9
:102AC0005807E9F08091E6039081981729F08181F9
:102AD000928168177907A8F4818192819B01281B54
:102AE000390B2417350778F4861B970B840F951F35
:102AF0008D939C93CF010E94471580E005C080E034
:102B000003C081E001C081E00F900FBE089581E015
:102B10008093E70308958091E1039091E203089583
:102B20000F931F93CF93DF93EC01009709F451C0EB
:102B30008E89E091E103F091E2039689891708F00C
:102B400048C02C853D8533235CF0E091E103F09192
:102B5000E203968925E030E0291B31093D872C8767
:102B600090E09C01220F331F220F331F220F331FCF
:102B7000820F931F8C509C4F2A853B85281739075D
:102B800011F58E010E5F1F4FC8010E944A05E091AA
:102B9000E103F091E20386898E8B9091EA03981706
:102BA00010F48093EA0390E09C01220F331F220F60
:102BB000331F220F331F820F931F8C509C4FB8017D
:102BC0000E94F90406C0E091E103F091E2038689D6
:102BD0008E8BDF91CF911F910F9108950F931F93CB
:102BE000CF93DF93EC01009781F18CA181508CA3EE
:102BF0002E899BA1291759F1882359F58E010E5F63
:102C00001F4FC8010E944A054BA14E8B242F30E074
:102C100085E090E0821B930B9D878C878091EA036F
:102C2000841710F44093EA03C901880F991F880F95
:102C3000991F880F991F280F391FC9018C509C4F6D
:102C4000B8010E94F90481E005C080E003C080E083
:102C500001C080E0DF91CF911F910F910895E09125
:102C6000E103F091E20384859585E091E103F09121
:102C7000E203A091E103B091E20356964C9156977E
:102C800025E030E0241B31093587248708958091A1
:102C9000E1039091E203009739F0E091E103F091B4
:102CA000E20384A18F5F84A38091E1039091E2030A
:102CB00008950F931F93CF93C82F0FB6F8940F92D8
:102CC000E091E103F091E20385A196A1A7A1B0A54F
:102CD0000097A105B10579F4E091E103F091E203D9
:102CE00081E081A76115710531F0CB0161E00E949F
:102CF000EE0E0E9438060F900FBE0FB6F8940F929A
:102D0000E091E103F091E20305A116A127A130A50E
:102D10000115110521053105C1F0CC2349F0E091E1
:102D2000E103F091E20315A216A217A210A60DC0AE
:102D3000E091E103F091E203D901C8010197A109F3
:102D4000B10985A396A3A7A3B0A7E091E103F091F1
:102D5000E20311A60F900FBE602F712F822F932FC9
:102D6000CF911F910F9108958F929F92AF92BF9232
:102D7000EF92FF920F931F93DC01CB0149015A019F
:102D80000FB6F8940F92E091E103F091E20321A5D0
:102D9000223019F1E091E103F091E20345A156A13F
:102DA00067A170A580959095A095B09584239523F3
:102DB000A623B72385A396A3A7A3B0A7E091E10319
:102DC000F091E20381E081A7E114F10431F0C70141
:102DD00061E00E94EE0E0E9438060F900FBE0FB603
:102DE000F8940F920115110569F0E091E103F0915B
:102DF000E20385A196A1A7A1B0A5F80180839183E4
:102E0000A283B383E091E103F091E20381A58130D5
:102E1000B1F0E091E103F091E20385A196A1A7A1B1
:102E2000B0A580949094A094B09488229922AA226C
:102E3000BB2285A296A2A7A2B0A681E001C080E035
:102E4000E091E103F091E20311A60F900FBE1F91F4
:102E50000F91FF90EF90BF90AF909F908F9008954B
:102E60000F931F93CF93DF93EC010FB6F8940F925B
:102E70000115110549F08DA19EA1AFA1B8A5F801DA
:102E800080839183A283B38339A582E089A722300E
:102E9000B9F0233018F4213051F505C02330E1F0AA
:102EA000243029F51EC08DA19EA1AFA1B8A5482B45
:102EB000592B6A2B7B2B4DA35EA36FA378A717C05A
:102EC0008DA19EA1AFA1B8A50196A11DB11D8DA395
:102ED0009EA3AFA3B8A70BC04DA35EA36FA378A713
:102EE00006C0323071F14DA35EA36FA378A73130D5
:102EF00051F58E010E5F1F4FC8010E944A058E8951
:102F00009091EA03981710F48093EA0390E09C01F3
:102F1000220F331F220F331F220F331F820F931FE5
:102F20008C509C4FB8010E94F904E091E103F091AC
:102F3000E2039E898689891740F40E94380681E061
:102F400005C080E003C081E001C081E00F900FBEAA
:102F5000DF91CF911F910F910895EF92FF920F9300
:102F60001F93CF93DF93EC010115110549F08DA15B
:102F70009EA1AFA1B8A5F80180839183A283B383FA
:102F800039A582E089A72230B9F0233018F4213026
:102F900059F505C02330E1F0243031F51EC08DA174
:102FA0009EA1AFA1B8A5842B952BA62BB72B8DA3E3
:102FB0009EA3AFA3B8A718C08DA19EA1AFA1B8A52D
:102FC0000196A11DB11D8DA39EA3AFA3B8A70CC0F0
:102FD0004DA35EA36FA378A707C0323009F441C0A8
:102FE0004DA35EA36FA378A73130E9F58091E30389
:102FF0008823E9F48E010E5F1F4FC8010E944A0525
:103000008E899091EA03981710F48093EA0390E078
:103010009C01220F331F220F331F220F331F820FF9
:10302000931F8C509C4FB8010E94F90407C0BE0149
:10303000645F7F4F83E394E00E94F904E091E10331
:10304000F091E2039E898689891778F4E114F104EE
:1030500021F081E0F701808309C081E08093E703DC
:1030600005C080E003C081E001C081E0DF91CF9125
:103070001F910F91FF90EF900895EF92FF920F93A1
:103080001F93CF93DF93EC018B0129A582E089A7E1
:103090008DA19EA1AFA1B8A50196A11DB11D8DA3C3
:1030A0009EA3AFA3B8A72130E9F58091E30388235D
:1030B00001F5EE24FF246894E1F8EC0EFD1EC70133
:1030C0000E944A058E899091EA03981710F4809324
:1030D000EA0390E09C01220F331F220F331F220FBF
:1030E000331F820F931F8C509C4FB7010E94F9042D
:1030F00007C0BE01645F7F4F83E394E00E94F90440
:10310000E091E103F091E2039E898689891750F4EA
:103110000115110521F081E0F801808303C081E0F1
:103120008093E703DF91CF911F910F91FF90EF9074
:103130000895009729F4E091E103F091E20301C0C2
:10314000FC010FB6F8940F9281A5823019F411A6F4
:1031500081E001C080E00F900FBE089583B78F7BA0
:1031600083BF83B7886083BF83B7816083BF83B722
:103170008D7F83BF83B7846083BF8EE48CBF89B7A4
:10318000826089BF08955058BB27AA270ED09FC0E0
:1031900090D030F095D020F031F49F3F11F41EF420
:1031A00085C00EF4E095E7FB7BC0E92FA1D080F34A
:1031B000BA17620773078407950718F071F49EF534
:1031C000B9C00EF4E0950B2EBA2FA02D0B01B9015A
:1031D00090010C01CA01A0011124FF27591B99F08D
:1031E000593F50F4503E68F11A16F040A22F232F99
:1031F000342F4427585FF3CF469537952795A795E9
:10320000F0405395C9F77EF41F16BA0B620B730B8F
:10321000840BBAF09150A1F0FF0FBB1F661F771F00
:10322000881FC2F70EC0BA0F621F731F841F48F4B5
:10323000879577956795B795F7959E3F08F0B3CF3B
:103240009395880F08F09927EE0F97958795089525
:1032500003D008F481E00895990F0008550FAA0BD8
:10326000E0E8FEEF16161706E807F907C0F0121699
:103270001306E407F50798F0621B730B840B950B9C
:1032800039F40A2661F0232B242B252B21F40895F1
:103290000A2609F4A140A6958FEF811D811D08958E
:1032A00097F99F6780E870E060E008959FEF80ECF9
:1032B000089500240A94161617061806090608959C
:1032C00000240A9412161306140605060895092E02
:1032D0000394000C11F4882352F0BB0F40F4BF2B71
:1032E00011F460FF04C06F5F7F4F8F4F9F4F0895B1
:1032F00057FD9058440F551F59F05F3F71F04795A7
:10330000880F97FB991F61F09F3F79F0879508958B
:10331000121613061406551FF2CF4695F1DF08C0AA
:10332000161617061806991FF1CF869571056105C7
:1033300008940895E894BB2766277727CB0197F96F
:103340000895FB01DC0102C001900D9241505040F4
:08335000D8F70895F894FFCFAF
:103358001F033734316F383532303936333D2F2A31
:103368002D2B636865636B7061737300626C6F63A8
:103378006B65640050617373776F72643A005465CB
:103388006D7000416264756C6C61680049444C451D
:02339800000033
:00000001FF
